:100000000C9463000C948B000C948B000C948B006C
:100010000C948B000C948B000C948B000C948B0034
:100020000C948B000C948B000C948B000C948B0024
:100030000C948B000C948B000C948B000C948B0014
:100040000C94FE040C948B000C9411030C948B0004
:100050000C948B000C948B000C948B000C948B00F4
:100060000C948B000C948B000000000024002700EF
:100070002A0000000000250028002B0000000000DE
:1000800023002600290004040404040404040202DA
:100090000202020203030303030301020408102007
:1000A0004080010204081020010204081020000012
:1000B0000007000201000003040600000000000029
:1000C00000006E02CA0311241FBECFEFD4E0DEBFD2
:1000D000CDBF11E0A0E0B1E0ECEDFEE002C0059084
:1000E0000D92A830B107D9F712E0A8E0B1E001C045
:1000F0001D92AC31B107E1F710E0C6ECD0E004C0CE
:100100002297FE010E946807C23CD107C9F70E94EE
:100110000A030C946C070C940000FC01448755877B
:10012000668777870895CF93DF93EC01EC8DFD8D83
:100130009081888D809589238083E8A1F9A19081A1
:100140008E8D809589238083ECA1FDA190818E8D79
:10015000809589238083E8A1F9A180819E8D892BD8
:100160008083E8A1F9A190818E8D80958923808379
:10017000EC8DFD8D8081988D892B8083EAA1FBA178
:1001800080816E8D90E0262F30E082239323892B8F
:10019000B1F42C893D894E895F8988859985AA8526
:1001A000BB85281739074A075B0748F42F5F3F4F85
:1001B0004F4F5F4F2C8B3D8B4E8B5F8BDFCF2C894E
:1001C0003D894E895F8988859985AA85BB85821777
:1001D0009307A407B50708F440C0ECA1FDA18081F6
:1001E000682B6083E8A1F9A180819E8D892B808393
:1001F000E8A1F9A190818E8D809589238083ECA15F
:10020000FDA190818E8D809589238083EC8DFD8D5D
:100210009081888D809589238083EAA1FBA120812C
:1002200030E08E8D90E028233923232BE1F02C89B8
:100230003D894E895F8988859985AA85BB85281760
:1002400039074A075B0778F42F5F3F4F4F4F5F4FE7
:100250002C8B3D8B4E8B5F8BE0CF2EEF3FEFC90198
:10026000DF91CF9108952C893D894E895F898885DA
:100270009985AA85BB85281739074A075B0768F760
:1002800021E030E0ECCFEF92FF920F931F93CF93DA
:10029000DF93EC01062F1C8A1D8A1E8A1F8A6623A3
:1002A00029F420E030E040E050E080C0888199816E
:1002B00097FF05C02FEF3FEF4FEF5FEF77C010E0E4
:1002C0000BC0CE010E94930097FF05C02EEF3FEFB9
:1002D0004FEF5FEF6BC01F5F101798F30E946E0522
:1002E000288939894A895B89621B730B840B950BBA
:1002F0002C853D854E855F852617370748075907AA
:10030000C0F52C893D894E895F896A817B818C810A
:100310009D81261737074807590721F4EE24FF244B
:10032000870106C079018A01E61AF70A080B190B42
:100330000E9411062DEC3CEC4CEC5DE30E949F0604
:100340000E94E005882777FD8095982FE616F7062E
:100350000807190770F48FEF9FEFAFEFBFE08A83B4
:100360009B83AC83BD830E946E05688B798B8A8BDF
:100370009B8B2C893D894E895F898A819B81AC81C9
:10038000BD81281739074A075B0720F42A833B837E
:100390004C835D832C893D894E895F898A819B814D
:1003A000AC81BD81281B390B4A0B5B0BB901CA011B
:1003B000DF91CF911F910F91FF90EF900895CF9310
:1003C000DF93EC0181E090E09983888386E391E0FC
:1003D0009F838E8380EE95E7A9E0B0E088879987B8
:1003E000AA87BB8780E29EE4A0E0B0E08C879D876F
:1003F000AE87BF87862F90E0FC01E656FF4FE49161
:10040000E88F8A579F4FFC016491698FE62FF0E0D7
:10041000EE0FFF1FEE58FF4F859194919D8F8C8FAB
:10042000842F90E0FC01E656FF4FE491EE8F8A574F
:100430009F4FFC0144914F8FE42FF0E0EE0FFF1F20
:10044000EE58FF4F859194919DA38CA3662321F4D0
:100450008FEF9FEF99838883898DE82FF0E0EE0F6F
:10046000FF1FE859FF4F859194919B8F8A8F8F8D45
:10047000882321F48FEF9FEF998388838F8D90E0FD
:10048000880F991FFC01E859FF4F2591349139A33A
:1004900028A3FC01EE58FF4F259134913DA32CA3D6
:1004A000FC01E458FF4F859194919BA38AA3EA8DA8
:1004B000FB8D8081988D892B80838FEF9FEFAFEF2D
:1004C000BFE08A839B83AC83BD830E946E05688BEB
:1004D000798B8A8B9B8BDF91CF91089588E091E097
:1004E00064E042E00E94DF018EE291E064E045E0DA
:1004F0000E94DF0184E591E064E048E00E94DF01B2
:1005000008954F925F926F927F928F929F92AF92D7
:10051000BF92CF92DF92EF92FF920F931F93DF93E0
:10052000CF9300D000D0CDB7DEB70E946E056B012F
:100530007C0188E091E06EE10E9443014B015C0187
:100540008EE291E06EE10E9443012B013C0184E5C3
:1005500091E06EE10E94430169837A838B839C83DF
:100560000E946E05AB01BC010EEF11E04C195D0954
:100570006E097F09C8010E94C80480E0E82E81E06E
:10058000F82EC801B7010E940104C801B501A401F9
:100590000E94CC04C801B7010E940104C801B30144
:1005A000A2010E94CC04C801B7010E940104C80145
:1005B00049815A816B817C810E94F3046AE070E07A
:1005C00080E090E00E947C050F900F900F900F90BC
:1005D000CF91DF911F910F91FF90EF90DF90CF901F
:1005E000BF90AF909F908F907F906F905F904F9053
:1005F000089588E091E04FEF5FEF6FEF7FEF0E948B
:100600008D008EEF91E040E855E260E070E00E94DE
:100610004E0308950E94A6050E94F9020E948102DD
:10062000FDCF1F920F920FB60F9211242F933F937D
:100630004F935F936F937F938F939F93AF93BF93EA
:10064000EF93FF934091C600E091FA01F091FB0116
:10065000CF01019660E870E00E9402079C01809142
:10066000FC019091FD012817390739F0E658FE4F3B
:1006700040833093FB012093FA01FF91EF91BF91EA
:10068000AF919F918F917F916F915F914F913F912A
:100690002F910F900FBE0F901F901895AF92BF92A1
:1006A000CF92DF92EF92FF920F931F93CF93DF933E
:1006B0006C017A018B01DC011496AD90BC9015970A
:1006C000CB01BA0122E030E040E050E00E94370761
:1006D000205C3D4B404F5F4FCA01B901A801970113
:1006E0000E943707C901DA010197A109B109292F31
:1006F0003A2F4B2F552747FD5A950196A11DB11D45
:10070000E5012883E601EE81FF8181508083EA853F
:10071000FB85208141E050E0CA010E8402C0880FB1
:10072000991F0A94E2F7282B2083EA85FB85208114
:10073000CA010F8402C0880F991F0A94E2F7282B80
:100740002083EA85FB858081088802C0440F551FFD
:100750000A94E2F7842B8083DF91CF911F910F9150
:10076000FF90EF90DF90CF90BF90AF900895FC0185
:10077000A085B18521898C9190E0022E02C09595CB
:1007800087950A94E2F780FFF6CF0484F585E02D83
:100790006083089586E091E09093FF018093FE01CD
:1007A0008AE791E0909301028093000285EC90E04B
:1007B000909303028093020284EC90E090930502F0
:1007C0008093040280EC90E09093070280930602ED
:1007D00081EC90E0909309028093080286EC90E00F
:1007E00090930B0280930A0284E080930C0283E0D2
:1007F00080930D0287E080930E0285E080930F02C4
:1008000008950F931F93CF93DF938C01EB0109C0E1
:100810002196D801ED91FC910190F081E02DC80165
:10082000099568816623A1F7DF91CF911F910F9100
:1008300008950F931F938C01DC01ED91FC910190C1
:10084000F081E02D6DE00995D801ED91FC910190CA
:10085000F081E02DC8016AE009951F910F9108957C
:100860002F923F924F925F926F927F928F929F92C0
:10087000AF92BF92CF92DF92EF92FF920F931F93AE
:10088000DF93CF93CDB7DEB7A0970FB6F894DEBF56
:100890000FBECDBF1C016A017B01411551056105E9
:1008A000710549F4DC01ED91FC910190F081E02D9E
:1008B00060E3099554C0882499245401422E55249C
:1008C0006624772401E010E00C0F1D1F080D191D90
:1008D000C701B601A30192010E941507F8016083C8
:1008E0000894811C911CA11CB11CC701B601A30175
:1008F00092010E941507C901DA016C017D01C11442
:10090000D104E104F104F1F681E0E82EF12CEC0EC3
:10091000FD1EE80CF91C3E010894611C711CD501F8
:10092000C4010197A109B1096C01C818D90814C004
:10093000F601EE0DFF1D60816A3010F4605D01C0AC
:10094000695CD101ED91FC910190F081E02DC10134
:1009500009950894E108F1086E147F0449F7A09600
:100960000FB6F894DEBF0FBECDBFCF91DF911F91C0
:100970000F91FF90EF90DF90CF90BF90AF909F903E
:100980008F907F906F905F904F903F902F90089541
:100990002AE00E9430040895EF92FF920F931F9374
:1009A000CF93DF93EC017A018B0177FF0FC0E881D1
:1009B000F9810190F081E02D6DE209951095009587
:1009C000F094E094E11CF11C011D111DCE01B80151
:1009D000A7012AE00E943004DF91CF911F910F916F
:1009E000FF90EF9008950F931F938C010E94CC0409
:1009F000C8010E9419041F910F9108951F920F9230
:100A00000FB60F9211242F938F939F93AF93BF93A1
:100A10008091100290911102A0911202B0911302E4
:100A20000196A11DB11D8093100290931102A09315
:100A30001202B09313028091140290911502A091BA
:100A40001602B09117028050904CAF4FBF4F809369
:100A5000140290931502A0931602B093170227C0B8
:100A60008091140290911502A0911602B091170284
:100A700080589E43A040B04080931402909315028A
:100A8000A0931602B0931702809118029091190258
:100A9000A0911A02B0911B020196A11DB11D809375
:100AA000180290931902A0931A02B0931B0280912E
:100AB000140290911502A0911602B091170281586C
:100AC0009E43A040B04060F6BF91AF919F918F913F
:100AD0002F910F900FBE0F901F9018958FB7F8941D
:100AE000209118023091190240911A0250911B0274
:100AF0008FBFB901CA010895EF92FF920F931F9320
:100B00007B018C018FB7F894409118025091190223
:100B100060911A0270911B028FBF2FB7F8948091D9
:100B2000180290911902A0911A02B0911B022FBFD6
:100B3000841B950BA60BB70BE816F9060A071B07D3
:100B400060F71F910F91FF90EF900895789484B50E
:100B5000826084BD84B5816084BD85B5826085BDB9
:100B600085B5816085BDEEE6F0E08081816080839F
:100B7000E1E8F0E080818260808380818160808311
:100B8000E0E8F0E0808181608083E1EBF0E080814B
:100B900084608083E0EBF0E0808181608083EAE71D
:100BA000F0E08081846080838081826080838081A6
:100BB000816080838081806880831092C100089565
:100BC00004D06894B111B5C0089598D088F09F57AB
:100BD00090F0B92F9927B751A0F0D1F0660F771F89
:100BE000881F991F1AF0BA95C9F712C0B13081F069
:100BF0009FD0B1E008959CC0672F782F8827B85FF9
:100C000039F0B93FCCF3869577956795B395D9F7C9
:100C10003EF490958095709561957F4F8F4F9F4FD3
:100C20000895E89409C097FB3EF4909580957095DF
:100C300061957F4F8F4F9F4F9923A9F0F92F96E928
:100C4000BB279395F695879577956795B795F1119D
:100C5000F8CFFAF4BB0F11F460FF1BC06F5F7F4F3A
:100C60008F4F9F4F16C0882311F096E911C077234C
:100C700021F09EE8872F762F05C0662371F096E855
:100C8000862F70E060E02AF09A95660F771F881F24
:100C9000DAF7880F9695879597F9089597F99F67E2
:100CA00080E870E060E008959FEF80EC08950024F4
:100CB0000A941616170618060906089500240A94C1
:100CC00012161306140605060895092E0394000C47
:100CD00011F4882352F0BB0F40F4BF2B11F460FFD6
:100CE00004C06F5F7F4F8F4F9F4F089557FD9058FF
:100CF000440F551F59F05F3F71F04795880F97FBE0
:100D0000991F61F09F3F79F0879508951216130699
:100D10001406551FF2CF4695F1DF08C016161706C8
:100D20001806991FF1CF86957105610508940895FD
:100D3000E894BB2766277727CB0197F908950BD056
:100D4000C4CFB5DF28F0BADF18F0952309F0A6CF9D
:100D5000ABCF1124EECFCADFA0F3959FD1F3950F4F
:100D600050E0551F629FF001729FBB27F00DB11D2F
:100D7000639FAA27F00DB11DAA1F649F6627B00DBF
:100D8000A11D661F829F2227B00DA11D621F739FA8
:100D9000B00DA11D621F839FA00D611D221F749FB6
:100DA0003327A00D611D231F849F600D211D822FFD
:100DB000762F6A2F11249F5750408AF0E1F0882344
:100DC0004AF0EE0FFF1FBB1F661F771F881F915051
:100DD0005040A9F79E3F510570F060CFAACF5F3F0A
:100DE000ECF3983EDCF3869577956795B795F79584
:100DF000E7959F5FC1F7FE2B880F911D969587950C
:100E000097F9089597FB092E07260AD077FD04D09D
:100E100049D006D000201AF4709561957F4F08954F
:100E2000F6F7909581959F4F0895A1E21A2EAA1B7F
:100E3000BB1BFD010DC0AA1FBB1FEE1FFF1FA2178A
:100E4000B307E407F50720F0A21BB30BE40BF50B87
:100E5000661F771F881F991F1A9469F76095709510
:100E6000809590959B01AC01BD01CF01089597FB42
:100E7000092E05260ED057FD04D0D7DF0AD0001C5E
:100E800038F450954095309521953F4F4F4F5F4F27
:100E90000895F6F790958095709561957F4F8F4FE7
:100EA0009F4F0895AA1BBB1B51E107C0AA1FBB1F80
:100EB000A617B70710F0A61BB70B881F991F5A95E6
:100EC000A9F780959095BC01CD010895EE0FFF1F05
:0C0ED0000590F491E02D0994F894FFCFF8
:080EDC00090000000000B7034B
:00000001FF
